19001825038KOOMBEA LIMITADA225P.QUINCENA100315A10031500000800000000000000000645247847737810258D                                                                           
6000000072272735ANDRES PE\A       00560007800000069236501035   S370002021978000000000000000000000 
6000000008486663ALVARO ENRIQUE INS00560007800000048740942142   S370000708500000000000000000000000 
6000000072346234HELMUT PETER FRITZ00560007800000077350151543   S370000616500000000000000000000000 
6000000072287518JORGE MARIO MEDINA00560007800000047735534650   S370000708500000000000000000000000 
6000001129566743JOSE FELIX GOMEZ  00560007800000077350602367   S370000708500000000000000000000000 
6000001129536243DIEGO ARMANDO CORO0056000780000004774022222    S370000593500000000000000000000000 
6000001129508471STELLA MIRANDA    0056000780000008028526360    S3700005475000000000000